{
  "contractName": "Congress",
  "abi": [
    {
      "constant": true,
      "inputs": [
        {
          "name": "",
          "type": "uint256"
        }
      ],
      "name": "proposals",
      "outputs": [
        {
          "name": "recipient",
          "type": "address"
        },
        {
          "name": "amount",
          "type": "uint256"
        },
        {
          "name": "description",
          "type": "string"
        },
        {
          "name": "votingDeadline",
          "type": "uint256"
        },
        {
          "name": "executed",
          "type": "bool"
        },
        {
          "name": "proposalPassed",
          "type": "bool"
        },
        {
          "name": "numberOfVotes",
          "type": "uint256"
        },
        {
          "name": "currentResult",
          "type": "int256"
        },
        {
          "name": "proposalHash",
          "type": "bytes32"
        }
      ],
      "payable": false,
      "stateMutability": "view",
      "type": "function"
    },
    {
      "constant": false,
      "inputs": [
        {
          "name": "targetMember",
          "type": "address"
        }
      ],
      "name": "removeMember",
      "outputs": [],
      "payable": false,
      "stateMutability": "nonpayable",
      "type": "function"
    },
    {
      "constant": false,
      "inputs": [
        {
          "name": "proposalNumber",
          "type": "uint256"
        },
        {
          "name": "transactionBytecode",
          "type": "bytes"
        }
      ],
      "name": "executeProposal",
      "outputs": [],
      "payable": false,
      "stateMutability": "nonpayable",
      "type": "function"
    },
    {
      "constant": true,
      "inputs": [
        {
          "name": "",
          "type": "address"
        }
      ],
      "name": "memberId",
      "outputs": [
        {
          "name": "",
          "type": "uint256"
        }
      ],
      "payable": false,
      "stateMutability": "view",
      "type": "function"
    },
    {
      "constant": true,
      "inputs": [],
      "name": "numProposals",
      "outputs": [
        {
          "name": "",
          "type": "uint256"
        }
      ],
      "payable": false,
      "stateMutability": "view",
      "type": "function"
    },
    {
      "constant": true,
      "inputs": [
        {
          "name": "",
          "type": "uint256"
        }
      ],
      "name": "members",
      "outputs": [
        {
          "name": "member",
          "type": "address"
        },
        {
          "name": "name",
          "type": "string"
        },
        {
          "name": "memberSince",
          "type": "uint256"
        }
      ],
      "payable": false,
      "stateMutability": "view",
      "type": "function"
    },
    {
      "constant": true,
      "inputs": [],
      "name": "debatingPeriodInMinutes",
      "outputs": [
        {
          "name": "",
          "type": "uint256"
        }
      ],
      "payable": false,
      "stateMutability": "view",
      "type": "function"
    },
    {
      "constant": true,
      "inputs": [],
      "name": "minimumQuorum",
      "outputs": [
        {
          "name": "",
          "type": "uint256"
        }
      ],
      "payable": false,
      "stateMutability": "view",
      "type": "function"
    },
    {
      "constant": true,
      "inputs": [],
      "name": "getNumberOfMembers",
      "outputs": [
        {
          "name": "",
          "type": "uint256"
        }
      ],
      "payable": false,
      "stateMutability": "view",
      "type": "function"
    },
    {
      "constant": true,
      "inputs": [],
      "name": "owner",
      "outputs": [
        {
          "name": "",
          "type": "address"
        }
      ],
      "payable": false,
      "stateMutability": "view",
      "type": "function"
    },
    {
      "constant": false,
      "inputs": [
        {
          "name": "_from",
          "type": "address"
        },
        {
          "name": "_value",
          "type": "uint256"
        },
        {
          "name": "_token",
          "type": "address"
        },
        {
          "name": "_extraData",
          "type": "bytes"
        }
      ],
      "name": "receiveApproval",
      "outputs": [],
      "payable": false,
      "stateMutability": "nonpayable",
      "type": "function"
    },
    {
      "constant": true,
      "inputs": [],
      "name": "majorityMargin",
      "outputs": [
        {
          "name": "",
          "type": "int256"
        }
      ],
      "payable": false,
      "stateMutability": "view",
      "type": "function"
    },
    {
      "constant": false,
      "inputs": [
        {
          "name": "beneficiary",
          "type": "address"
        },
        {
          "name": "weiAmount",
          "type": "uint256"
        },
        {
          "name": "jobDescription",
          "type": "string"
        },
        {
          "name": "transactionBytecode",
          "type": "bytes"
        }
      ],
      "name": "newProposal",
      "outputs": [
        {
          "name": "proposalID",
          "type": "uint256"
        }
      ],
      "payable": false,
      "stateMutability": "nonpayable",
      "type": "function"
    },
    {
      "constant": false,
      "inputs": [
        {
          "name": "beneficiary",
          "type": "address"
        },
        {
          "name": "etherAmount",
          "type": "uint256"
        },
        {
          "name": "jobDescription",
          "type": "string"
        },
        {
          "name": "transactionBytecode",
          "type": "bytes"
        }
      ],
      "name": "newProposalInEther",
      "outputs": [
        {
          "name": "proposalID",
          "type": "uint256"
        }
      ],
      "payable": false,
      "stateMutability": "nonpayable",
      "type": "function"
    },
    {
      "constant": false,
      "inputs": [
        {
          "name": "minimumQuorumForProposals",
          "type": "uint256"
        },
        {
          "name": "minutesForDebate",
          "type": "uint256"
        },
        {
          "name": "marginOfVotesForMajority",
          "type": "int256"
        }
      ],
      "name": "changeVotingRules",
      "outputs": [],
      "payable": false,
      "stateMutability": "nonpayable",
      "type": "function"
    },
    {
      "constant": false,
      "inputs": [
        {
          "name": "targetMember",
          "type": "address"
        },
        {
          "name": "memberName",
          "type": "string"
        }
      ],
      "name": "addMember",
      "outputs": [],
      "payable": false,
      "stateMutability": "nonpayable",
      "type": "function"
    },
    {
      "constant": false,
      "inputs": [
        {
          "name": "proposalNumber",
          "type": "uint256"
        },
        {
          "name": "supportsProposal",
          "type": "bool"
        },
        {
          "name": "justificationText",
          "type": "string"
        }
      ],
      "name": "vote",
      "outputs": [
        {
          "name": "voteID",
          "type": "uint256"
        }
      ],
      "payable": false,
      "stateMutability": "nonpayable",
      "type": "function"
    },
    {
      "constant": true,
      "inputs": [
        {
          "name": "proposalNumber",
          "type": "uint256"
        },
        {
          "name": "beneficiary",
          "type": "address"
        },
        {
          "name": "weiAmount",
          "type": "uint256"
        },
        {
          "name": "transactionBytecode",
          "type": "bytes"
        }
      ],
      "name": "checkProposalCode",
      "outputs": [
        {
          "name": "codeChecksOut",
          "type": "bool"
        }
      ],
      "payable": false,
      "stateMutability": "view",
      "type": "function"
    },
    {
      "constant": false,
      "inputs": [
        {
          "name": "newOwner",
          "type": "address"
        }
      ],
      "name": "transferOwnership",
      "outputs": [],
      "payable": false,
      "stateMutability": "nonpayable",
      "type": "function"
    },
    {
      "inputs": [
        {
          "name": "minimumQuorumForProposals",
          "type": "uint256"
        },
        {
          "name": "minutesForDebate",
          "type": "uint256"
        },
        {
          "name": "marginOfVotesForMajority",
          "type": "int256"
        }
      ],
      "payable": true,
      "stateMutability": "payable",
      "type": "constructor"
    },
    {
      "payable": true,
      "stateMutability": "payable",
      "type": "fallback"
    },
    {
      "anonymous": false,
      "inputs": [
        {
          "indexed": false,
          "name": "proposalID",
          "type": "uint256"
        },
        {
          "indexed": false,
          "name": "recipient",
          "type": "address"
        },
        {
          "indexed": false,
          "name": "amount",
          "type": "uint256"
        },
        {
          "indexed": false,
          "name": "description",
          "type": "string"
        }
      ],
      "name": "ProposalAdded",
      "type": "event"
    },
    {
      "anonymous": false,
      "inputs": [
        {
          "indexed": false,
          "name": "proposalID",
          "type": "uint256"
        },
        {
          "indexed": false,
          "name": "position",
          "type": "bool"
        },
        {
          "indexed": false,
          "name": "voter",
          "type": "address"
        },
        {
          "indexed": false,
          "name": "justification",
          "type": "string"
        }
      ],
      "name": "Voted",
      "type": "event"
    },
    {
      "anonymous": false,
      "inputs": [
        {
          "indexed": false,
          "name": "proposalID",
          "type": "uint256"
        },
        {
          "indexed": false,
          "name": "result",
          "type": "int256"
        },
        {
          "indexed": false,
          "name": "quorum",
          "type": "uint256"
        },
        {
          "indexed": false,
          "name": "active",
          "type": "bool"
        }
      ],
      "name": "ProposalTallied",
      "type": "event"
    },
    {
      "anonymous": false,
      "inputs": [
        {
          "indexed": false,
          "name": "member",
          "type": "address"
        },
        {
          "indexed": false,
          "name": "isMember",
          "type": "bool"
        }
      ],
      "name": "MembershipChanged",
      "type": "event"
    },
    {
      "anonymous": false,
      "inputs": [
        {
          "indexed": false,
          "name": "newMinimumQuorum",
          "type": "uint256"
        },
        {
          "indexed": false,
          "name": "newDebatingPeriodInMinutes",
          "type": "uint256"
        },
        {
          "indexed": false,
          "name": "newMajorityMargin",
          "type": "int256"
        }
      ],
      "name": "ChangeOfRules",
      "type": "event"
    },
    {
      "anonymous": false,
      "inputs": [
        {
          "indexed": false,
          "name": "sender",
          "type": "address"
        },
        {
          "indexed": false,
          "name": "amount",
          "type": "uint256"
        }
      ],
      "name": "ReceivedEther",
      "type": "event"
    },
    {
      "anonymous": false,
      "inputs": [
        {
          "indexed": false,
          "name": "_from",
          "type": "address"
        },
        {
          "indexed": false,
          "name": "_value",
          "type": "uint256"
        },
        {
          "indexed": false,
          "name": "_token",
          "type": "address"
        },
        {
          "indexed": false,
          "name": "_extraData",
          "type": "bytes"
        }
      ],
      "name": "ReceivedTokens",
      "type": "event"
    },
    {
      "anonymous": false,
      "inputs": [
        {
          "indexed": true,
          "name": "previousOwner",
          "type": "address"
        },
        {
          "indexed": true,
          "name": "newOwner",
          "type": "address"
        }
      ],
      "name": "OwnershipTransferred",
      "type": "event"
    }
  ],
  "bytecode": "0x60606040526040516060806200285083398101604052808051906020019091908051906020019091908051906020019091905050336000806101000a81548173ffffffffffffffffffffffffffffffffffffffff021916908373ffffffffffffffffffffffffffffffffffffffff1602179055506200009483838362000144640100000000026200169d176401000000009004565b620000c56000602060405190810160405280600081525062000207640100000000026200175f176401000000009004565b6200013b6000809054906101000a900473ffffffffffffffffffffffffffffffffffffffff166040805190810160405280600781526020017f666f756e6465720000000000000000000000000000000000000000000000000081525062000207640100000000026200175f176401000000009004565b505050620005de565b6000809054906101000a900473ffffffffffffffffffffffffffffffffffffffff1673ffffffffffffffffffffffffffffffffffffffff163373ffffffffffffffffffffffffffffffffffffffff16141515620001a057600080fd5b8260018190555081600281905550806003819055507fa439d3fa452be5e0e1e24a8145e715f4fd8b9c08c96a42fd82a855a85e5d57de60015460025460035460405180848152602001838152602001828152602001935050505060405180910390a1505050565b60008060009054906101000a900473ffffffffffffffffffffffffffffffffffffffff1673ffffffffffffffffffffffffffffffffffffffff163373ffffffffffffffffffffffffffffffffffffffff161415156200026557600080fd5b600660008473ffffffffffffffffffffffffffffffffffffffff1673ffffffffffffffffffffffffffffffffffffffff16815260200190815260200160002054905060008114156200031357600780549050600660008573ffffffffffffffffffffffffffffffffffffffff1673ffffffffffffffffffffffffffffffffffffffff16815260200190815260200160002081905550600780548091906001016200031091906200044b565b90505b6060604051908101604052808473ffffffffffffffffffffffffffffffffffffffff168152602001838152602001428152506007828154811015156200035557fe5b906000526020600020906003020160008201518160000160006101000a81548173ffffffffffffffffffffffffffffffffffffffff021916908373ffffffffffffffffffffffffffffffffffffffff1602179055506020820151816001019080519060200190620003c892919062000480565b50604082015181600201559050507f27b022af4a8347100c7a041ce5ccf8e14d644ff05de696315196faae8cd50c9b836001604051808373ffffffffffffffffffffffffffffffffffffffff1673ffffffffffffffffffffffffffffffffffffffff168152602001821515151581526020019250505060405180910390a1505050565b8154818355818115116200047b576003028160030283600052602060002091820191016200047a919062000507565b5b505050565b828054600181600116156101000203166002900490600052602060002090601f016020900481019282601f10620004c357805160ff1916838001178555620004f4565b82800160010185558215620004f4579182015b82811115620004f3578251825591602001919060010190620004d6565b5b5090506200050391906200056a565b5090565b6200056791905b808211156200056357600080820160006101000a81549073ffffffffffffffffffffffffffffffffffffffff021916905560018201600062000551919062000592565b6002820160009055506003016200050e565b5090565b90565b6200058f91905b808211156200058b57600081600090555060010162000571565b5090565b90565b50805460018160011615610100020316600290046000825580601f10620005ba5750620005db565b601f016020900490600052602060002090810190620005da91906200056a565b5b50565b61226280620005ee6000396000f300606060405260043610610107576000357c0100000000000000000000000000000000000000000000000000000000900463ffffffff168063013cf08b146101745780630b1ca49a146102a1578063237e9492146102da5780633910682114610340578063400e39491461038d5780635daf08ca146103b657806369bd3436146104a95780638160f0b5146104d25780638b73a46b146104fb5780638da5cb5b146105245780638f4ffcb114610579578063aa02a90f1461061d578063b1050da514610646578063b9f256cd14610722578063bcca1fd3146107fe578063c127c24714610833578063d3c0715b146108af578063eceb294514610934578063f2fde38b146109da575b7fa419615bc8fda4c87663805ee2a3597a6d71c1d476911d9892f340d965bc7bf13334604051808373ffffffffffffffffffffffffffffffffffffffff1673ffffffffffffffffffffffffffffffffffffffff1681526020018281526020019250505060405180910390a1005b341561017f57600080fd5b6101956004808035906020019091905050610a13565b604051808a73ffffffffffffffffffffffffffffffffffffffff1673ffffffffffffffffffffffffffffffffffffffff168152602001898152602001806020018881526020018715151515815260200186151515158152602001858152602001848152602001836000191660001916815260200182810382528981815460018160011615610100020316600290048152602001915080546001816001161561010002031660029004801561028a5780601f1061025f5761010080835404028352916020019161028a565b820191906000526020600020905b81548152906001019060200180831161026d57829003601f168201915b50509a505050505050505050505060405180910390f35b34156102ac57600080fd5b6102d8600480803573ffffffffffffffffffffffffffffffffffffffff16906020019091905050610aa9565b005b34156102e557600080fd5b61033e600480803590602001909190803590602001908201803590602001908080601f01602080910402602001604051908101604052809392919081815260200183838082843782019150505050505091905050610d7f565b005b341561034b57600080fd5b610377600480803573ffffffffffffffffffffffffffffffffffffffff16906020019091905050611066565b6040518082815260200191505060405180910390f35b341561039857600080fd5b6103a061107e565b6040518082815260200191505060405180910390f35b34156103c157600080fd5b6103d76004808035906020019091905050611084565b604051808473ffffffffffffffffffffffffffffffffffffffff1673ffffffffffffffffffffffffffffffffffffffff168152602001806020018381526020018281038252848181546001816001161561010002031660029004815260200191508054600181600116156101000203166002900480156104985780601f1061046d57610100808354040283529160200191610498565b820191906000526020600020905b81548152906001019060200180831161047b57829003601f168201915b505094505050505060405180910390f35b34156104b457600080fd5b6104bc6110dc565b6040518082815260200191505060405180910390f35b34156104dd57600080fd5b6104e56110e2565b6040518082815260200191505060405180910390f35b341561050657600080fd5b61050e6110e8565b6040518082815260200191505060405180910390f35b341561052f57600080fd5b6105376110f5565b604051808273ffffffffffffffffffffffffffffffffffffffff1673ffffffffffffffffffffffffffffffffffffffff16815260200191505060405180910390f35b341561058457600080fd5b61061b600480803573ffffffffffffffffffffffffffffffffffffffff1690602001909190803590602001909190803573ffffffffffffffffffffffffffffffffffffffff1690602001909190803590602001908201803590602001908080601f0160208091040260200160405190810160405280939291908181526020018383808284378201915050505050509190505061111a565b005b341561062857600080fd5b610630611337565b6040518082815260200191505060405180910390f35b341561065157600080fd5b61070c600480803573ffffffffffffffffffffffffffffffffffffffff1690602001909190803590602001909190803590602001908201803590602001908080601f0160208091040260200160405190810160405280939291908181526020018383808284378201915050505050509190803590602001908201803590602001908080601f0160208091040260200160405190810160405280939291908181526020018383808284378201915050505050509190505061133d565b6040518082815260200191505060405180910390f35b341561072d57600080fd5b6107e8600480803573ffffffffffffffffffffffffffffffffffffffff1690602001909190803590602001909190803590602001908201803590602001908080601f0160208091040260200160405190810160405280939291908181526020018383808284378201915050505050509190803590602001908201803590602001908080601f0160208091040260200160405190810160405280939291908181526020018383808284378201915050505050509190505061162d565b6040518082815260200191505060405180910390f35b341561080957600080fd5b610831600480803590602001909190803590602001909190803590602001909190505061169d565b005b341561083e57600080fd5b6108ad600480803573ffffffffffffffffffffffffffffffffffffffff1690602001909190803590602001908201803590602001908080601f0160208091040260200160405190810160405280939291908181526020018383808284378201915050505050509190505061175f565b005b34156108ba57600080fd5b61091e6004808035906020019091908035151590602001909190803590602001908201803590602001908080601f0160208091040260200160405190810160405280939291908181526020018383808284378201915050505050509190505061199c565b6040518082815260200191505060405180910390f35b341561093f57600080fd5b6109c0600480803590602001909190803573ffffffffffffffffffffffffffffffffffffffff1690602001909190803590602001909190803590602001908201803590602001908080601f01602080910402602001604051908101604052809392919081815260200183838082843782019150505050505091905050611bfe565b604051808215151515815260200191505060405180910390f35b34156109e557600080fd5b610a11600480803573ffffffffffffffffffffffffffffffffffffffff16906020019091905050611ce7565b005b600481815481101515610a2257fe5b90600052602060002090600a02016000915090508060000160009054906101000a900473ffffffffffffffffffffffffffffffffffffffff169080600101549080600201908060030154908060040160009054906101000a900460ff16908060040160019054906101000a900460ff16908060050154908060060154908060070154905089565b60008060009054906101000a900473ffffffffffffffffffffffffffffffffffffffff1673ffffffffffffffffffffffffffffffffffffffff163373ffffffffffffffffffffffffffffffffffffffff16141515610b0657600080fd5b6000600660008473ffffffffffffffffffffffffffffffffffffffff1673ffffffffffffffffffffffffffffffffffffffff1681526020019081526020016000205414151515610b5557600080fd5b600660008373ffffffffffffffffffffffffffffffffffffffff1673ffffffffffffffffffffffffffffffffffffffff1681526020019081526020016000205490505b600160078054905003811015610c8e57600760018201815481101515610bba57fe5b9060005260206000209060030201600782815481101515610bd757fe5b90600052602060002090600302016000820160009054906101000a900473ffffffffffffffffffffffffffffffffffffffff168160000160006101000a81548173ffffffffffffffffffffffffffffffffffffffff021916908373ffffffffffffffffffffffffffffffffffffffff16021790555060018201816001019080546001816001161561010002031660029004610c73929190611e3c565b50600282015481600201559050508080600101915050610b98565b6007600160078054905003815481101515610ca557fe5b9060005260206000209060030201600080820160006101000a81549073ffffffffffffffffffffffffffffffffffffffff0219169055600182016000610ceb9190611ec3565b600282016000905550506007805480919060019003610d0a9190611f0b565b507f27b022af4a8347100c7a041ce5ccf8e14d644ff05de696315196faae8cd50c9b826000604051808373ffffffffffffffffffffffffffffffffffffffff1673ffffffffffffffffffffffffffffffffffffffff168152602001821515151581526020019250505060405180910390a15050565b6000600483815481101515610d9057fe5b90600052602060002090600a02019050806003015442118015610dc257508060040160009054906101000a900460ff16155b8015610eae57508060000160009054906101000a900473ffffffffffffffffffffffffffffffffffffffff16816001015483604051808473ffffffffffffffffffffffffffffffffffffffff1673ffffffffffffffffffffffffffffffffffffffff166c0100000000000000000000000002815260140183815260200182805190602001908083835b602083101515610e705780518252602082019150602081019050602083039250610e4b565b6001836020036101000a0380198251168184511680821785525050505050509050019350505050604051809103902060001916816007015460001916145b8015610ec05750600154816005015410155b1515610ecb57600080fd5b60035481600601541315610fd75760018160040160006101000a81548160ff0219169083151502179055508060000160009054906101000a900473ffffffffffffffffffffffffffffffffffffffff1673ffffffffffffffffffffffffffffffffffffffff1681600101548360405180828051906020019080838360005b83811015610f64578082015181840152602081019050610f49565b50505050905090810190601f168015610f915780820380516001836020036101000a031916815260200191505b5091505060006040518083038185876187965a03f1925050501515610fb557600080fd5b60018160040160016101000a81548160ff021916908315150217905550610ff5565b60008160040160016101000a81548160ff0219169083151502179055505b7fd220b7272a8b6d0d7d6bcdace67b936a8f175e6d5c1b3ee438b72256b32ab3af83826006015483600501548460040160019054906101000a900460ff16604051808581526020018481526020018381526020018215151515815260200194505050505060405180910390a1505050565b60066020528060005260406000206000915090505481565b60055481565b60078181548110151561109357fe5b90600052602060002090600302016000915090508060000160009054906101000a900473ffffffffffffffffffffffffffffffffffffffff169080600101908060020154905083565b60025481565b60015481565b6000600780549050905090565b6000809054906101000a900473ffffffffffffffffffffffffffffffffffffffff1681565b60008290508073ffffffffffffffffffffffffffffffffffffffff166323b872dd8630876000604051602001526040518463ffffffff167c0100000000000000000000000000000000000000000000000000000000028152600401808473ffffffffffffffffffffffffffffffffffffffff1673ffffffffffffffffffffffffffffffffffffffff1681526020018373ffffffffffffffffffffffffffffffffffffffff1673ffffffffffffffffffffffffffffffffffffffff1681526020018281526020019350505050602060405180830381600087803b15156111fe57600080fd5b6102c65a03f1151561120f57600080fd5b50505060405180519050151561122457600080fd5b7fd65b48fd35864b3528d38e44760be5553248f89bf3ff6b06cca57817cc2650bf85858585604051808573ffffffffffffffffffffffffffffffffffffffff1673ffffffffffffffffffffffffffffffffffffffff1681526020018481526020018373ffffffffffffffffffffffffffffffffffffffff1673ffffffffffffffffffffffffffffffffffffffff16815260200180602001828103825283818151815260200191508051906020019080838360005b838110156112f35780820151818401526020810190506112d8565b50505050905090810190601f1680156113205780820380516001836020036101000a031916815260200191505b509550505050505060405180910390a15050505050565b60035481565b6000806000600660003373ffffffffffffffffffffffffffffffffffffffff1673ffffffffffffffffffffffffffffffffffffffff168152602001908152602001600020541415151561138f57600080fd5b600480548091906001016113a39190611f3d565b91506004828154811015156113b457fe5b90600052602060002090600a02019050858160000160006101000a81548173ffffffffffffffffffffffffffffffffffffffff021916908373ffffffffffffffffffffffffffffffffffffffff16021790555084816001018190555083816002019080519060200190611428929190611f6f565b50858584604051808473ffffffffffffffffffffffffffffffffffffffff1673ffffffffffffffffffffffffffffffffffffffff166c0100000000000000000000000002815260140183815260200182805190602001908083835b6020831015156114a85780518252602082019150602081019050602083039250611483565b6001836020036101000a03801982511681845116808217855250505050505090500193505050506040518091039020816007018160001916905550603c600254024201816003018190555060008160040160006101000a81548160ff02191690831515021790555060008160040160016101000a81548160ff021916908315150217905550600081600501819055507f646fec02522b41e7125cfc859a64fd4f4cefd5dc3b6237ca0abe251ded1fa88182878787604051808581526020018473ffffffffffffffffffffffffffffffffffffffff1673ffffffffffffffffffffffffffffffffffffffff16815260200183815260200180602001828103825283818151815260200191508051906020019080838360005b838110156115da5780820151818401526020810190506115bf565b50505050905090810190601f1680156116075780820380516001836020036101000a031916815260200191505b509550505050505060405180910390a16001820160058190555081915050949350505050565b600080600660003373ffffffffffffffffffffffffffffffffffffffff1673ffffffffffffffffffffffffffffffffffffffff168152602001908152602001600020541415151561167d57600080fd5b61169385670de0b6b3a76400008602858561133d565b9050949350505050565b6000809054906101000a900473ffffffffffffffffffffffffffffffffffffffff1673ffffffffffffffffffffffffffffffffffffffff163373ffffffffffffffffffffffffffffffffffffffff161415156116f857600080fd5b8260018190555081600281905550806003819055507fa439d3fa452be5e0e1e24a8145e715f4fd8b9c08c96a42fd82a855a85e5d57de60015460025460035460405180848152602001838152602001828152602001935050505060405180910390a1505050565b60008060009054906101000a900473ffffffffffffffffffffffffffffffffffffffff1673ffffffffffffffffffffffffffffffffffffffff163373ffffffffffffffffffffffffffffffffffffffff161415156117bc57600080fd5b600660008473ffffffffffffffffffffffffffffffffffffffff1673ffffffffffffffffffffffffffffffffffffffff168152602001908152602001600020549050600081141561186757600780549050600660008573ffffffffffffffffffffffffffffffffffffffff1673ffffffffffffffffffffffffffffffffffffffff16815260200190815260200160002081905550600780548091906001016118649190611f0b565b90505b6060604051908101604052808473ffffffffffffffffffffffffffffffffffffffff168152602001838152602001428152506007828154811015156118a857fe5b906000526020600020906003020160008201518160000160006101000a81548173ffffffffffffffffffffffffffffffffffffffff021916908373ffffffffffffffffffffffffffffffffffffffff1602179055506020820151816001019080519060200190611919929190611fef565b50604082015181600201559050507f27b022af4a8347100c7a041ce5ccf8e14d644ff05de696315196faae8cd50c9b836001604051808373ffffffffffffffffffffffffffffffffffffffff1673ffffffffffffffffffffffffffffffffffffffff168152602001821515151581526020019250505060405180910390a1505050565b6000806000600660003373ffffffffffffffffffffffffffffffffffffffff1673ffffffffffffffffffffffffffffffffffffffff16815260200190815260200160002054141515156119ee57600080fd5b6004858154811015156119fd57fe5b90600052602060002090600a020190508060090160003373ffffffffffffffffffffffffffffffffffffffff1673ffffffffffffffffffffffffffffffffffffffff16815260200190815260200160002060009054906101000a900460ff16151515611a6857600080fd5b60018160090160003373ffffffffffffffffffffffffffffffffffffffff1673ffffffffffffffffffffffffffffffffffffffff16815260200190815260200160002060006101000a81548160ff02191690831515021790555080600501600081548092919060010191905055508315611af5578060060160008154809291906001019190505550611b0b565b8060060160008154809291906001900391905055505b7fc34f869b7ff431b034b7b9aea9822dac189a685e0b015c7d1be3add3f89128e88585338660405180858152602001841515151581526020018373ffffffffffffffffffffffffffffffffffffffff1673ffffffffffffffffffffffffffffffffffffffff16815260200180602001828103825283818151815260200191508051906020019080838360005b83811015611bb2578082015181840152602081019050611b97565b50505050905090810190601f168015611bdf5780820380516001836020036101000a031916815260200191505b509550505050505060405180910390a180600501549150509392505050565b600080600486815481101515611c1057fe5b90600052602060002090600a02019050848484604051808473ffffffffffffffffffffffffffffffffffffffff1673ffffffffffffffffffffffffffffffffffffffff166c0100000000000000000000000002815260140183815260200182805190602001908083835b602083101515611c9f5780518252602082019150602081019050602083039250611c7a565b6001836020036101000a038019825116818451168082178552505050505050905001935050505060405180910390206000191681600701546000191614915050949350505050565b6000809054906101000a900473ffffffffffffffffffffffffffffffffffffffff1673ffffffffffffffffffffffffffffffffffffffff163373ffffffffffffffffffffffffffffffffffffffff16141515611d4257600080fd5b600073ffffffffffffffffffffffffffffffffffffffff168173ffffffffffffffffffffffffffffffffffffffff1614151515611d7e57600080fd5b8073ffffffffffffffffffffffffffffffffffffffff166000809054906101000a900473ffffffffffffffffffffffffffffffffffffffff1673ffffffffffffffffffffffffffffffffffffffff167f8be0079c531659141344cd1fd0a4f28419497f9722a3daafe3b4186f6b6457e060405160405180910390a3806000806101000a81548173ffffffffffffffffffffffffffffffffffffffff021916908373ffffffffffffffffffffffffffffffffffffffff16021790555050565b828054600181600116156101000203166002900490600052602060002090601f016020900481019282601f10611e755780548555611eb2565b82800160010185558215611eb257600052602060002091601f016020900482015b82811115611eb1578254825591600101919060010190611e96565b5b509050611ebf919061206f565b5090565b50805460018160011615610100020316600290046000825580601f10611ee95750611f08565b601f016020900490600052602060002090810190611f07919061206f565b5b50565b815481835581811511611f3857600302816003028360005260206000209182019101611f379190612094565b5b505050565b815481835581811511611f6a57600a0281600a028360005260206000209182019101611f6991906120f2565b5b505050565b828054600181600116156101000203166002900490600052602060002090601f016020900481019282601f10611fb057805160ff1916838001178555611fde565b82800160010185558215611fde579182015b82811115611fdd578251825591602001919060010190611fc2565b5b509050611feb919061206f565b5090565b828054600181600116156101000203166002900490600052602060002090601f016020900481019282601f1061203057805160ff191683800117855561205e565b8280016001018555821561205e579182015b8281111561205d578251825591602001919060010190612042565b5b50905061206b919061206f565b5090565b61209191905b8082111561208d576000816000905550600101612075565b5090565b90565b6120ef91905b808211156120eb57600080820160006101000a81549073ffffffffffffffffffffffffffffffffffffffff02191690556001820160006120da9190611ec3565b60028201600090555060030161209a565b5090565b90565b6121a591905b808211156121a157600080820160006101000a81549073ffffffffffffffffffffffffffffffffffffffff021916905560018201600090556002820160006121409190611ec3565b60038201600090556004820160006101000a81549060ff02191690556004820160016101000a81549060ff021916905560058201600090556006820160009055600782016000905560088201600061219891906121a8565b50600a016120f8565b5090565b90565b50805460008255600202906000526020600020908101906121c991906121cc565b50565b61223391905b8082111561222f57600080820160006101000a81549060ff02191690556000820160016101000a81549073ffffffffffffffffffffffffffffffffffffffff02191690556001820160006122269190611ec3565b506002016121d2565b5090565b905600a165627a7a72305820a839784995b798e8e7b7b95bc3060dbcd914aec5245a5f71fb9586163b831cc00029",
  "source": "pragma solidity ^0.4.2;\r\n\r\nimport \"./TokenRecipient.sol\";\r\nimport 'zeppelin-solidity/contracts/ownership/Ownable.sol';\r\n\r\ncontract Congress is Ownable, TokenRecipient {\r\n\r\n    // Contract variables\r\n    uint public minimumQuorum;  // Minimum number of members required to vote on a Proposal\r\n    uint public debatingPeriodInMinutes; // Debating period for a Proposal\r\n    int public majorityMargin; // Added margin to win majority on top of 50%\r\n\r\n    Proposal[] public proposals; // Proposals being debated on...\r\n    uint public numProposals;\r\n\r\n    mapping (address => uint) public memberId;\r\n    Member[] public members;\r\n\r\n    // Contract Events\r\n    event ProposalAdded(uint proposalID, address recipient, uint amount, string description);\r\n    event Voted(uint proposalID, bool position, address voter, string justification);\r\n    event ProposalTallied(uint proposalID, int result, uint quorum, bool active);\r\n    event MembershipChanged(address member, bool isMember);\r\n    event ChangeOfRules(uint newMinimumQuorum, uint newDebatingPeriodInMinutes, int newMajorityMargin);\r\n\r\n    struct Proposal {\r\n        address recipient;\r\n        uint amount;\r\n        string description;\r\n        uint votingDeadline;\r\n        bool executed;\r\n        bool proposalPassed;\r\n        uint numberOfVotes;\r\n        int currentResult;\r\n        bytes32 proposalHash;\r\n        Vote[] votes;\r\n\r\n        /// Mappings can be seen as hash tables which are virtually initialized such that\r\n        /// every possible key exists and is mapped to a value whose byte-representation is all zeros : a type's default value.\r\n        /// The key data is not actually stored in a mapping, only its keccak256 hash used to look up the value.\r\n        mapping (address => bool) voted;\r\n    }\r\n\r\n    struct Member {\r\n        address member;\r\n        string name;\r\n        uint memberSince;\r\n    }\r\n\r\n    struct Vote {\r\n        bool inSupport;\r\n        address voter;\r\n        string justification;\r\n    }\r\n\r\n    /**\r\n    * @dev Modifier that allows only shareholders to vote and create new proposals.\r\n    */\r\n    modifier onlyMembers {\r\n        require(memberId[msg.sender] != 0);\r\n        _;\r\n    }\r\n\r\n    /**\r\n     * @dev Constructor.\r\n     * \r\n     * A Congress will be created for each issue.\r\n     * \r\n     * @notice It is important to also provide the \"payable\" keyword here, otherwise\r\n     * the function will automatically reject all ether sent to it.\r\n    */\r\n    function Congress(uint minimumQuorumForProposals, uint minutesForDebate, int marginOfVotesForMajority) payable public {\r\n        changeVotingRules(minimumQuorumForProposals, minutesForDebate, marginOfVotesForMajority);\r\n\r\n        addMember(0, \"\"); // Add an empty first member\r\n\r\n        addMember(owner, \"founder\"); // User who created issue or voting on issue is the founder of the `Congress`\r\n    }\r\n\r\n    /**\r\n    * @dev Adds a member to the Congress. Members should only be contributors to the repository.\r\n    * \r\n    * Make `targetMember` a member named `memberName`\r\n    *\r\n    * TODO: Check if member with `memberName` already exists \r\n    * \r\n    * @param targetMember  the Eth address to be added\r\n    * @param memberName    the Github name for that member\r\n    */\r\n    function addMember(address targetMember, string memberName) onlyOwner public {        \r\n        uint id = memberId[targetMember]; // Retrieve the id mapped to the address of `targetMember`\r\n        \r\n        if (id == 0) { // If the `targetMember` doesn't exist\r\n            memberId[targetMember] = members.length;\r\n            id = members.length++;\r\n        }\r\n\r\n        members[id] = Member({member: targetMember, memberSince: now, name:memberName});\r\n        MembershipChanged(targetMember, true);\r\n    }\r\n\r\n    /**\r\n    * @dev Remove a member.\r\n    *\r\n    * @notice Remove membership from 'targetMember'\r\n    *\r\n    * @param targetMember ethereum address to be removed\r\n    */\r\n    function removeMember(address targetMember) onlyOwner public {\r\n        require(memberId[targetMember] != 0); // Make `targetMember` is already a member\r\n\r\n        // For all members after the member to remove, push them back one spot\r\n        for (uint i = memberId[targetMember]; i < members.length - 1; i++) {\r\n            members[i] = members[i + 1]; // The first iteration replaces the member to remove\r\n        }\r\n\r\n        delete members[members.length - 1];\r\n        members.length--;\r\n\r\n        MembershipChanged(targetMember, false);\r\n    }\r\n\r\n    /**\r\n     * @dev Gets a view of the members in the Congress\r\n     *\r\n     * @return members currently in session\r\n     */\r\n    function getNumberOfMembers() public view returns (uint) {\r\n        return members.length;\r\n    }\r\n\r\n    /**\r\n     * @dev Changes voting rules\r\n     *\r\n     * Make so that proposals need to be discussed for at least `minutesForDebate/60` hours,\r\n     * have at least `minimumQuorumForProposals` votes, and have 50% + `marginOfVotesForMajority` votes to be executed\r\n     *\r\n     * @param minimumQuorumForProposals Number of members required to vote on a proposal for it to be executed\r\n     * @param minutesForDebate Minimum amount of delay between when a proposal is made and when it can be executed\r\n     * @param marginOfVotesForMajority the proposal needs to have 50% plus this number\r\n     */\r\n     function changeVotingRules(uint minimumQuorumForProposals, uint minutesForDebate, int marginOfVotesForMajority) onlyOwner public {\r\n         minimumQuorum = minimumQuorumForProposals;\r\n         debatingPeriodInMinutes = minutesForDebate;\r\n         majorityMargin = marginOfVotesForMajority;\r\n\r\n         ChangeOfRules(minimumQuorum, debatingPeriodInMinutes, majorityMargin);\r\n     }\r\n\r\n    /**\r\n     * @dev Adds a Proposal\r\n     * \r\n     * Propose to send `weiamount / 1e18` ether to `beneficiary` for `jobDescription`.\r\n     * `transactionBytecode` ? Contains : Does not contain code.\r\n     * \r\n     * @notice The smallest denomination aka base unit of ether is called Wei.\r\n     *\r\n     * @param beneficiary who to send the ether to\r\n     * @param weiAmount amount of ether to send, in wei\r\n     * @param jobDescription Description of job\r\n     * @param transactionBytecode bytecode of transaction\r\n     */\r\n    function newProposal(\r\n        address beneficiary,\r\n        uint weiAmount,\r\n        string jobDescription,\r\n        bytes transactionBytecode\r\n    )\r\n        onlyMembers public\r\n        returns (uint proposalID)\r\n    {\r\n        proposalID = proposals.length++;\r\n\r\n        Proposal storage p = proposals[proposalID];\r\n        p.recipient = beneficiary;\r\n        p.amount = weiAmount;\r\n        p.description = jobDescription;\r\n\r\n        /// Computes the Ethereum-SHA-3 hash of the (tightly packed) arguments\r\n        /// Tightly packed -> arguments are concatenated without padded (e.g. \"ab\", \"c\" -> \"abc\" | 0x616263)\r\n        p.proposalHash = keccak256(beneficiary, weiAmount, transactionBytecode);\r\n\r\n        p.votingDeadline = now + debatingPeriodInMinutes * 1 minutes;\r\n        p.executed = false;\r\n        p.proposalPassed = false;\r\n        p.numberOfVotes = 0;\r\n\r\n        ProposalAdded(proposalID, beneficiary, weiAmount, jobDescription);\r\n        numProposals = proposalID + 1;\r\n\r\n        return proposalID;\r\n    }\r\n\r\n    /**\r\n     *\r\n     * @dev Adds proposal in Ether\r\n     *\r\n     * Propose to send 'etherAmount' ether to 'beneficiary' for 'jobDescription'. \r\n     * `transactionBytecode ? Contains : Does not contain` code.\r\n     * \r\n     * @notice Utility function to use if the amount to be given is in round numbers.\r\n     *\r\n     * @param beneficiary who to send ether to\r\n     * @param etherAmount amount of ether to send\r\n     * @param jobDescription Description of job\r\n     * @param transactionBytecode bytecode of transaction\r\n     */\r\n    function newProposalInEther(\r\n        address beneficiary,\r\n        uint etherAmount,\r\n        string jobDescription,\r\n        bytes transactionBytecode\r\n    )\r\n        onlyMembers public\r\n        returns (uint proposalID)\r\n    {\r\n        return newProposal(beneficiary, etherAmount * 1 ether, jobDescription, transactionBytecode);\r\n    }\r\n\r\n    /**\r\n    * @dev Checks if proposal code matches\r\n    *\r\n    * @param proposalNumber ID number of the proposal to query\r\n    * @param beneficiary who to send the ether to\r\n    * @param weiAmount amount of ether to send\r\n    * @param transactionBytecode bytecode of transaction\r\n    */\r\n    function checkProposalCode(\r\n        uint proposalNumber,\r\n        address beneficiary,\r\n        uint weiAmount,\r\n        bytes transactionBytecode\r\n    )\r\n        constant public\r\n            returns (bool codeChecksOut)\r\n    {\r\n        Proposal storage p = proposals[proposalNumber];\r\n        return p.proposalHash == keccak256(beneficiary, weiAmount, transactionBytecode);\r\n    }\r\n\r\n    /**\r\n    * @dev Logs a vote for a proposal\r\n    *\r\n    * Vote `supportsProposal` ? In support : against # `proposalNumber`\r\n    *\r\n    * @param proposalNumber number of proposal\r\n    * @param supportsProposal either in favor or against it\r\n    * @param justificationText optional justification text\r\n    */\r\n    function vote(\r\n        uint proposalNumber,\r\n        bool supportsProposal,\r\n        string justificationText\r\n    )\r\n        onlyMembers public\r\n        returns (uint voteID)\r\n    {\r\n        Proposal storage p = proposals[proposalNumber]; // Get the correct proposal\r\n        require(!p.voted[msg.sender]); // Make sure the person hasn't voted yet\r\n\r\n        p.voted[msg.sender] = true;\r\n        p.numberOfVotes++;\r\n        \r\n        if (supportsProposal) {\r\n            p.currentResult++;\r\n        } else {\r\n            p.currentResult--;\r\n        }\r\n\r\n        // Register the voting event\r\n        Voted(proposalNumber, supportsProposal, msg.sender, justificationText);\r\n\r\n        return p.numberOfVotes;\r\n    }\r\n\r\n    /**\r\n    * Finishes voting.\r\n    *\r\n    * Count the votes proposal # `proposalNumber` and execute it if approved\r\n    *\r\n    * @param proposalNumber proposal number\r\n    * @param transactionBytecode optional: if the transaction contained a bytecode, send it!\r\n    */\r\n    function executeProposal(uint proposalNumber, bytes transactionBytecode) public {\r\n        Proposal storage p = proposals[proposalNumber];\r\n\r\n        require(now > p.votingDeadline && !p.executed && p.proposalHash == keccak256(p.recipient, p.amount, transactionBytecode) && p.numberOfVotes >= minimumQuorum);\r\n\r\n        // Execute proposal\r\n        if (p.currentResult > majorityMargin) {\r\n            \r\n            p.executed = true; // Avoid recursive calling\r\n            \r\n            require(p.recipient.call.value(p.amount)(transactionBytecode));\r\n\r\n            p.proposalPassed = true;\r\n        } else {\r\n            // Failure of proposal\r\n            p.proposalPassed = false;\r\n        }\r\n\r\n        // Fire events\r\n        ProposalTallied(proposalNumber, p.currentResult, p.numberOfVotes, p.proposalPassed);\r\n    }\r\n}\r\n",
  "sourcePath": "c:\\Users\\oakejp12\\Documents\\Development\\Crypto\\ETH\\ethpull\\contracts\\Congress.sol",
  "compiler": {
    "name": "solc",
    "version": "0.4.18+commit.9cf6e910.Emscripten.clang"
  },
  "schemaVersion": "1.0.1",
  "updatedAt": "2018-01-17T04:16:46.676Z"
}