{
  "contractName": "Congress",
  "abi": [
    {
      "constant": true,
      "inputs": [
        {
          "name": "",
          "type": "uint256"
        }
      ],
      "name": "proposals",
      "outputs": [
        {
          "name": "recipient",
          "type": "address"
        },
        {
          "name": "amount",
          "type": "uint256"
        },
        {
          "name": "description",
          "type": "string"
        },
        {
          "name": "votingDeadline",
          "type": "uint256"
        },
        {
          "name": "executed",
          "type": "bool"
        },
        {
          "name": "proposalPassed",
          "type": "bool"
        },
        {
          "name": "numberOfVotes",
          "type": "uint256"
        },
        {
          "name": "currentResult",
          "type": "int256"
        },
        {
          "name": "proposalHash",
          "type": "bytes32"
        }
      ],
      "payable": false,
      "stateMutability": "view",
      "type": "function"
    },
    {
      "constant": false,
      "inputs": [
        {
          "name": "targetMember",
          "type": "address"
        }
      ],
      "name": "removeMember",
      "outputs": [],
      "payable": false,
      "stateMutability": "nonpayable",
      "type": "function"
    },
    {
      "constant": false,
      "inputs": [
        {
          "name": "proposalNumber",
          "type": "uint256"
        },
        {
          "name": "transactionBytecode",
          "type": "bytes"
        }
      ],
      "name": "executeProposal",
      "outputs": [],
      "payable": false,
      "stateMutability": "nonpayable",
      "type": "function"
    },
    {
      "constant": true,
      "inputs": [
        {
          "name": "",
          "type": "address"
        }
      ],
      "name": "memberId",
      "outputs": [
        {
          "name": "",
          "type": "uint256"
        }
      ],
      "payable": false,
      "stateMutability": "view",
      "type": "function"
    },
    {
      "constant": true,
      "inputs": [],
      "name": "numProposals",
      "outputs": [
        {
          "name": "",
          "type": "uint256"
        }
      ],
      "payable": false,
      "stateMutability": "view",
      "type": "function"
    },
    {
      "constant": true,
      "inputs": [
        {
          "name": "",
          "type": "uint256"
        }
      ],
      "name": "members",
      "outputs": [
        {
          "name": "member",
          "type": "address"
        },
        {
          "name": "name",
          "type": "string"
        },
        {
          "name": "memberSince",
          "type": "uint256"
        }
      ],
      "payable": false,
      "stateMutability": "view",
      "type": "function"
    },
    {
      "constant": true,
      "inputs": [],
      "name": "debatingPeriodInMinutes",
      "outputs": [
        {
          "name": "",
          "type": "uint256"
        }
      ],
      "payable": false,
      "stateMutability": "view",
      "type": "function"
    },
    {
      "constant": true,
      "inputs": [],
      "name": "minimumQuorum",
      "outputs": [
        {
          "name": "",
          "type": "uint256"
        }
      ],
      "payable": false,
      "stateMutability": "view",
      "type": "function"
    },
    {
      "constant": true,
      "inputs": [],
      "name": "owner",
      "outputs": [
        {
          "name": "",
          "type": "address"
        }
      ],
      "payable": false,
      "stateMutability": "view",
      "type": "function"
    },
    {
      "constant": false,
      "inputs": [
        {
          "name": "_from",
          "type": "address"
        },
        {
          "name": "_value",
          "type": "uint256"
        },
        {
          "name": "_token",
          "type": "address"
        },
        {
          "name": "_extraData",
          "type": "bytes"
        }
      ],
      "name": "receiveApproval",
      "outputs": [],
      "payable": false,
      "stateMutability": "nonpayable",
      "type": "function"
    },
    {
      "constant": true,
      "inputs": [],
      "name": "majorityMargin",
      "outputs": [
        {
          "name": "",
          "type": "int256"
        }
      ],
      "payable": false,
      "stateMutability": "view",
      "type": "function"
    },
    {
      "constant": false,
      "inputs": [
        {
          "name": "beneficiary",
          "type": "address"
        },
        {
          "name": "weiAmount",
          "type": "uint256"
        },
        {
          "name": "jobDescription",
          "type": "string"
        },
        {
          "name": "transactionBytecode",
          "type": "bytes"
        }
      ],
      "name": "newProposal",
      "outputs": [
        {
          "name": "proposalID",
          "type": "uint256"
        }
      ],
      "payable": false,
      "stateMutability": "nonpayable",
      "type": "function"
    },
    {
      "constant": false,
      "inputs": [
        {
          "name": "beneficiary",
          "type": "address"
        },
        {
          "name": "etherAmount",
          "type": "uint256"
        },
        {
          "name": "jobDescription",
          "type": "string"
        },
        {
          "name": "transactionBytecode",
          "type": "bytes"
        }
      ],
      "name": "newProposalInEther",
      "outputs": [
        {
          "name": "proposalID",
          "type": "uint256"
        }
      ],
      "payable": false,
      "stateMutability": "nonpayable",
      "type": "function"
    },
    {
      "constant": false,
      "inputs": [
        {
          "name": "minimumQuorumForProposals",
          "type": "uint256"
        },
        {
          "name": "minutesForDebate",
          "type": "uint256"
        },
        {
          "name": "marginOfVotesForMajority",
          "type": "int256"
        }
      ],
      "name": "changeVotingRules",
      "outputs": [],
      "payable": false,
      "stateMutability": "nonpayable",
      "type": "function"
    },
    {
      "constant": false,
      "inputs": [
        {
          "name": "targetMember",
          "type": "address"
        },
        {
          "name": "memberName",
          "type": "string"
        }
      ],
      "name": "addMember",
      "outputs": [],
      "payable": false,
      "stateMutability": "nonpayable",
      "type": "function"
    },
    {
      "constant": false,
      "inputs": [
        {
          "name": "proposalNumber",
          "type": "uint256"
        },
        {
          "name": "supportsProposal",
          "type": "bool"
        },
        {
          "name": "justificationText",
          "type": "string"
        }
      ],
      "name": "vote",
      "outputs": [
        {
          "name": "voteID",
          "type": "uint256"
        }
      ],
      "payable": false,
      "stateMutability": "nonpayable",
      "type": "function"
    },
    {
      "constant": true,
      "inputs": [
        {
          "name": "proposalNumber",
          "type": "uint256"
        },
        {
          "name": "beneficiary",
          "type": "address"
        },
        {
          "name": "weiAmount",
          "type": "uint256"
        },
        {
          "name": "transactionBytecode",
          "type": "bytes"
        }
      ],
      "name": "checkProposalCode",
      "outputs": [
        {
          "name": "codeChecksOut",
          "type": "bool"
        }
      ],
      "payable": false,
      "stateMutability": "view",
      "type": "function"
    },
    {
      "constant": false,
      "inputs": [
        {
          "name": "newOwner",
          "type": "address"
        }
      ],
      "name": "transferOwnership",
      "outputs": [],
      "payable": false,
      "stateMutability": "nonpayable",
      "type": "function"
    },
    {
      "inputs": [
        {
          "name": "minimumQuorumForProposals",
          "type": "uint256"
        },
        {
          "name": "minutesForDebate",
          "type": "uint256"
        },
        {
          "name": "marginOfVotesForMajority",
          "type": "int256"
        }
      ],
      "payable": true,
      "stateMutability": "payable",
      "type": "constructor"
    },
    {
      "payable": true,
      "stateMutability": "payable",
      "type": "fallback"
    },
    {
      "anonymous": false,
      "inputs": [
        {
          "indexed": false,
          "name": "proposalID",
          "type": "uint256"
        },
        {
          "indexed": false,
          "name": "recipient",
          "type": "address"
        },
        {
          "indexed": false,
          "name": "amount",
          "type": "uint256"
        },
        {
          "indexed": false,
          "name": "description",
          "type": "string"
        }
      ],
      "name": "ProposalAdded",
      "type": "event"
    },
    {
      "anonymous": false,
      "inputs": [
        {
          "indexed": false,
          "name": "proposalID",
          "type": "uint256"
        },
        {
          "indexed": false,
          "name": "position",
          "type": "bool"
        },
        {
          "indexed": false,
          "name": "voter",
          "type": "address"
        },
        {
          "indexed": false,
          "name": "justification",
          "type": "string"
        }
      ],
      "name": "Voted",
      "type": "event"
    },
    {
      "anonymous": false,
      "inputs": [
        {
          "indexed": false,
          "name": "proposalID",
          "type": "uint256"
        },
        {
          "indexed": false,
          "name": "result",
          "type": "int256"
        },
        {
          "indexed": false,
          "name": "quorum",
          "type": "uint256"
        },
        {
          "indexed": false,
          "name": "active",
          "type": "bool"
        }
      ],
      "name": "ProposalTallied",
      "type": "event"
    },
    {
      "anonymous": false,
      "inputs": [
        {
          "indexed": false,
          "name": "member",
          "type": "address"
        },
        {
          "indexed": false,
          "name": "isMember",
          "type": "bool"
        }
      ],
      "name": "MembershipChanged",
      "type": "event"
    },
    {
      "anonymous": false,
      "inputs": [
        {
          "indexed": false,
          "name": "newMinimumQuorum",
          "type": "uint256"
        },
        {
          "indexed": false,
          "name": "newDebatingPeriodInMinutes",
          "type": "uint256"
        },
        {
          "indexed": false,
          "name": "newMajorityMargin",
          "type": "int256"
        }
      ],
      "name": "ChangeOfRules",
      "type": "event"
    },
    {
      "anonymous": false,
      "inputs": [
        {
          "indexed": false,
          "name": "sender",
          "type": "address"
        },
        {
          "indexed": false,
          "name": "amount",
          "type": "uint256"
        }
      ],
      "name": "ReceivedEther",
      "type": "event"
    },
    {
      "anonymous": false,
      "inputs": [
        {
          "indexed": false,
          "name": "_form",
          "type": "address"
        },
        {
          "indexed": false,
          "name": "_value",
          "type": "uint256"
        },
        {
          "indexed": false,
          "name": "_token",
          "type": "address"
        },
        {
          "indexed": false,
          "name": "_extraData",
          "type": "bytes"
        }
      ],
      "name": "ReceivedTokens",
      "type": "event"
    }
  ],
  "bytecode": "0x6060604052604051606080620026e583398101604052808051906020019091908051906020019091908051906020019091905050336000806101000a81548173ffffffffffffffffffffffffffffffffffffffff021916908373ffffffffffffffffffffffffffffffffffffffff160217905550620000948383836200014464010000000002620015e9176401000000009004565b620000c5600060206040519081016040528060008152506200020764010000000002620016ab176401000000009004565b6200013b6000809054906101000a900473ffffffffffffffffffffffffffffffffffffffff166040805190810160405280600781526020017f666f756e646572000000000000000000000000000000000000000000000000008152506200020764010000000002620016ab176401000000009004565b505050620005de565b6000809054906101000a900473ffffffffffffffffffffffffffffffffffffffff1673ffffffffffffffffffffffffffffffffffffffff163373ffffffffffffffffffffffffffffffffffffffff16141515620001a057600080fd5b8260018190555081600281905550806003819055507fa439d3fa452be5e0e1e24a8145e715f4fd8b9c08c96a42fd82a855a85e5d57de60015460025460035460405180848152602001838152602001828152602001935050505060405180910390a1505050565b60008060009054906101000a900473ffffffffffffffffffffffffffffffffffffffff1673ffffffffffffffffffffffffffffffffffffffff163373ffffffffffffffffffffffffffffffffffffffff161415156200026557600080fd5b600660008473ffffffffffffffffffffffffffffffffffffffff1673ffffffffffffffffffffffffffffffffffffffff16815260200190815260200160002054905060008114156200031357600780549050600660008573ffffffffffffffffffffffffffffffffffffffff1673ffffffffffffffffffffffffffffffffffffffff16815260200190815260200160002081905550600780548091906001016200031091906200044b565b90505b6060604051908101604052808473ffffffffffffffffffffffffffffffffffffffff168152602001838152602001428152506007828154811015156200035557fe5b906000526020600020906003020160008201518160000160006101000a81548173ffffffffffffffffffffffffffffffffffffffff021916908373ffffffffffffffffffffffffffffffffffffffff1602179055506020820151816001019080519060200190620003c892919062000480565b50604082015181600201559050507f27b022af4a8347100c7a041ce5ccf8e14d644ff05de696315196faae8cd50c9b836001604051808373ffffffffffffffffffffffffffffffffffffffff1673ffffffffffffffffffffffffffffffffffffffff168152602001821515151581526020019250505060405180910390a1505050565b8154818355818115116200047b576003028160030283600052602060002091820191016200047a919062000507565b5b505050565b828054600181600116156101000203166002900490600052602060002090601f016020900481019282601f10620004c357805160ff1916838001178555620004f4565b82800160010185558215620004f4579182015b82811115620004f3578251825591602001919060010190620004d6565b5b5090506200050391906200056a565b5090565b6200056791905b808211156200056357600080820160006101000a81549073ffffffffffffffffffffffffffffffffffffffff021916905560018201600062000551919062000592565b6002820160009055506003016200050e565b5090565b90565b6200058f91905b808211156200058b57600081600090555060010162000571565b5090565b90565b50805460018160011615610100020316600290046000825580601f10620005ba5750620005db565b601f016020900490600052602060002090810190620005da91906200056a565b5b50565b6120f780620005ee6000396000f3006060604052600436106100fc576000357c0100000000000000000000000000000000000000000000000000000000900463ffffffff168063013cf08b146101695780630b1ca49a14610296578063237e9492146102cf5780633910682114610335578063400e3949146103825780635daf08ca146103ab57806369bd34361461049e5780638160f0b5146104c75780638da5cb5b146104f05780638f4ffcb114610545578063aa02a90f146105e9578063b1050da514610612578063b9f256cd146106ee578063bcca1fd3146107ca578063c127c247146107ff578063d3c0715b1461087b578063eceb294514610900578063f2fde38b146109a6575b7fa419615bc8fda4c87663805ee2a3597a6d71c1d476911d9892f340d965bc7bf13334604051808373ffffffffffffffffffffffffffffffffffffffff1673ffffffffffffffffffffffffffffffffffffffff1681526020018281526020019250505060405180910390a1005b341561017457600080fd5b61018a60048080359060200190919050506109df565b604051808a73ffffffffffffffffffffffffffffffffffffffff1673ffffffffffffffffffffffffffffffffffffffff168152602001898152602001806020018881526020018715151515815260200186151515158152602001858152602001848152602001836000191660001916815260200182810382528981815460018160011615610100020316600290048152602001915080546001816001161561010002031660029004801561027f5780601f106102545761010080835404028352916020019161027f565b820191906000526020600020905b81548152906001019060200180831161026257829003601f168201915b50509a505050505050505050505060405180910390f35b34156102a157600080fd5b6102cd600480803573ffffffffffffffffffffffffffffffffffffffff16906020019091905050610a75565b005b34156102da57600080fd5b610333600480803590602001909190803590602001908201803590602001908080601f01602080910402602001604051908101604052809392919081815260200183838082843782019150505050505091905050610cd8565b005b341561034057600080fd5b61036c600480803573ffffffffffffffffffffffffffffffffffffffff16906020019091905050610fbf565b6040518082815260200191505060405180910390f35b341561038d57600080fd5b610395610fd7565b6040518082815260200191505060405180910390f35b34156103b657600080fd5b6103cc6004808035906020019091905050610fdd565b604051808473ffffffffffffffffffffffffffffffffffffffff1673ffffffffffffffffffffffffffffffffffffffff1681526020018060200183815260200182810382528481815460018160011615610100020316600290048152602001915080546001816001161561010002031660029004801561048d5780601f106104625761010080835404028352916020019161048d565b820191906000526020600020905b81548152906001019060200180831161047057829003601f168201915b505094505050505060405180910390f35b34156104a957600080fd5b6104b1611035565b6040518082815260200191505060405180910390f35b34156104d257600080fd5b6104da61103b565b6040518082815260200191505060405180910390f35b34156104fb57600080fd5b610503611041565b604051808273ffffffffffffffffffffffffffffffffffffffff1673ffffffffffffffffffffffffffffffffffffffff16815260200191505060405180910390f35b341561055057600080fd5b6105e7600480803573ffffffffffffffffffffffffffffffffffffffff1690602001909190803590602001909190803573ffffffffffffffffffffffffffffffffffffffff1690602001909190803590602001908201803590602001908080601f01602080910402602001604051908101604052809392919081815260200183838082843782019150505050505091905050611066565b005b34156105f457600080fd5b6105fc611283565b6040518082815260200191505060405180910390f35b341561061d57600080fd5b6106d8600480803573ffffffffffffffffffffffffffffffffffffffff1690602001909190803590602001909190803590602001908201803590602001908080601f0160208091040260200160405190810160405280939291908181526020018383808284378201915050505050509190803590602001908201803590602001908080601f01602080910402602001604051908101604052809392919081815260200183838082843782019150505050505091905050611289565b6040518082815260200191505060405180910390f35b34156106f957600080fd5b6107b4600480803573ffffffffffffffffffffffffffffffffffffffff1690602001909190803590602001909190803590602001908201803590602001908080601f0160208091040260200160405190810160405280939291908181526020018383808284378201915050505050509190803590602001908201803590602001908080601f01602080910402602001604051908101604052809392919081815260200183838082843782019150505050505091905050611579565b6040518082815260200191505060405180910390f35b34156107d557600080fd5b6107fd60048080359060200190919080359060200190919080359060200190919050506115e9565b005b341561080a57600080fd5b610879600480803573ffffffffffffffffffffffffffffffffffffffff1690602001909190803590602001908201803590602001908080601f016020809104026020016040519081016040528093929190818152602001838380828437820191505050505050919050506116ab565b005b341561088657600080fd5b6108ea6004808035906020019091908035151590602001909190803590602001908201803590602001908080601f016020809104026020016040519081016040528093929190818152602001838380828437820191505050505050919050506118e8565b6040518082815260200191505060405180910390f35b341561090b57600080fd5b61098c600480803590602001909190803573ffffffffffffffffffffffffffffffffffffffff1690602001909190803590602001909190803590602001908201803590602001908080601f01602080910402602001604051908101604052809392919081815260200183838082843782019150505050505091905050611b4a565b604051808215151515815260200191505060405180910390f35b34156109b157600080fd5b6109dd600480803573ffffffffffffffffffffffffffffffffffffffff16906020019091905050611c33565b005b6004818154811015156109ee57fe5b90600052602060002090600a02016000915090508060000160009054906101000a900473ffffffffffffffffffffffffffffffffffffffff169080600101549080600201908060030154908060040160009054906101000a900460ff16908060040160019054906101000a900460ff16908060050154908060060154908060070154905089565b60008060009054906101000a900473ffffffffffffffffffffffffffffffffffffffff1673ffffffffffffffffffffffffffffffffffffffff163373ffffffffffffffffffffffffffffffffffffffff16141515610ad257600080fd5b6000600660008473ffffffffffffffffffffffffffffffffffffffff1673ffffffffffffffffffffffffffffffffffffffff1681526020019081526020016000205414151515610b2157600080fd5b600660008373ffffffffffffffffffffffffffffffffffffffff1673ffffffffffffffffffffffffffffffffffffffff1681526020019081526020016000205490505b600780549050811015610c5757600760018201815481101515610b8357fe5b9060005260206000209060030201600782815481101515610ba057fe5b90600052602060002090600302016000820160009054906101000a900473ffffffffffffffffffffffffffffffffffffffff168160000160006101000a81548173ffffffffffffffffffffffffffffffffffffffff021916908373ffffffffffffffffffffffffffffffffffffffff16021790555060018201816001019080546001816001161561010002031660029004610c3c929190611cd1565b50600282015481600201559050508080600101915050610b64565b6007600160078054905003815481101515610c6e57fe5b9060005260206000209060030201600080820160006101000a81549073ffffffffffffffffffffffffffffffffffffffff0219169055600182016000610cb49190611d58565b600282016000905550506007805480919060019003610cd39190611da0565b505050565b6000600483815481101515610ce957fe5b90600052602060002090600a02019050806003015442118015610d1b57508060040160009054906101000a900460ff16155b8015610e0757508060000160009054906101000a900473ffffffffffffffffffffffffffffffffffffffff16816001015483604051808473ffffffffffffffffffffffffffffffffffffffff1673ffffffffffffffffffffffffffffffffffffffff166c0100000000000000000000000002815260140183815260200182805190602001908083835b602083101515610dc95780518252602082019150602081019050602083039250610da4565b6001836020036101000a0380198251168184511680821785525050505050509050019350505050604051809103902060001916816007015460001916145b8015610e195750600154816005015410155b1515610e2457600080fd5b60035481600601541315610f305760018160040160006101000a81548160ff0219169083151502179055508060000160009054906101000a900473ffffffffffffffffffffffffffffffffffffffff1673ffffffffffffffffffffffffffffffffffffffff1681600101548360405180828051906020019080838360005b83811015610ebd578082015181840152602081019050610ea2565b50505050905090810190601f168015610eea5780820380516001836020036101000a031916815260200191505b5091505060006040518083038185876187965a03f1925050501515610f0e57600080fd5b60018160040160016101000a81548160ff021916908315150217905550610f4e565b60008160040160016101000a81548160ff0219169083151502179055505b7fd220b7272a8b6d0d7d6bcdace67b936a8f175e6d5c1b3ee438b72256b32ab3af83826006015483600501548460040160019054906101000a900460ff16604051808581526020018481526020018381526020018215151515815260200194505050505060405180910390a1505050565b60066020528060005260406000206000915090505481565b60055481565b600781815481101515610fec57fe5b90600052602060002090600302016000915090508060000160009054906101000a900473ffffffffffffffffffffffffffffffffffffffff169080600101908060020154905083565b60025481565b60015481565b6000809054906101000a900473ffffffffffffffffffffffffffffffffffffffff1681565b60008290508073ffffffffffffffffffffffffffffffffffffffff166323b872dd8630876000604051602001526040518463ffffffff167c0100000000000000000000000000000000000000000000000000000000028152600401808473ffffffffffffffffffffffffffffffffffffffff1673ffffffffffffffffffffffffffffffffffffffff1681526020018373ffffffffffffffffffffffffffffffffffffffff1673ffffffffffffffffffffffffffffffffffffffff1681526020018281526020019350505050602060405180830381600087803b151561114a57600080fd5b6102c65a03f1151561115b57600080fd5b50505060405180519050151561117057600080fd5b7fd65b48fd35864b3528d38e44760be5553248f89bf3ff6b06cca57817cc2650bf85858585604051808573ffffffffffffffffffffffffffffffffffffffff1673ffffffffffffffffffffffffffffffffffffffff1681526020018481526020018373ffffffffffffffffffffffffffffffffffffffff1673ffffffffffffffffffffffffffffffffffffffff16815260200180602001828103825283818151815260200191508051906020019080838360005b8381101561123f578082015181840152602081019050611224565b50505050905090810190601f16801561126c5780820380516001836020036101000a031916815260200191505b509550505050505060405180910390a15050505050565b60035481565b6000806000600660003373ffffffffffffffffffffffffffffffffffffffff1673ffffffffffffffffffffffffffffffffffffffff16815260200190815260200160002054141515156112db57600080fd5b600480548091906001016112ef9190611dd2565b915060048281548110151561130057fe5b90600052602060002090600a02019050858160000160006101000a81548173ffffffffffffffffffffffffffffffffffffffff021916908373ffffffffffffffffffffffffffffffffffffffff16021790555084816001018190555083816002019080519060200190611374929190611e04565b50858584604051808473ffffffffffffffffffffffffffffffffffffffff1673ffffffffffffffffffffffffffffffffffffffff166c0100000000000000000000000002815260140183815260200182805190602001908083835b6020831015156113f457805182526020820191506020810190506020830392506113cf565b6001836020036101000a03801982511681845116808217855250505050505090500193505050506040518091039020816007018160001916905550603c600254024201816003018190555060008160040160006101000a81548160ff02191690831515021790555060008160040160016101000a81548160ff021916908315150217905550600081600501819055507f646fec02522b41e7125cfc859a64fd4f4cefd5dc3b6237ca0abe251ded1fa88182878787604051808581526020018473ffffffffffffffffffffffffffffffffffffffff1673ffffffffffffffffffffffffffffffffffffffff16815260200183815260200180602001828103825283818151815260200191508051906020019080838360005b8381101561152657808201518184015260208101905061150b565b50505050905090810190601f1680156115535780820380516001836020036101000a031916815260200191505b509550505050505060405180910390a16001820160058190555081915050949350505050565b600080600660003373ffffffffffffffffffffffffffffffffffffffff1673ffffffffffffffffffffffffffffffffffffffff16815260200190815260200160002054141515156115c957600080fd5b6115df85670de0b6b3a764000086028585611289565b9050949350505050565b6000809054906101000a900473ffffffffffffffffffffffffffffffffffffffff1673ffffffffffffffffffffffffffffffffffffffff163373ffffffffffffffffffffffffffffffffffffffff1614151561164457600080fd5b8260018190555081600281905550806003819055507fa439d3fa452be5e0e1e24a8145e715f4fd8b9c08c96a42fd82a855a85e5d57de60015460025460035460405180848152602001838152602001828152602001935050505060405180910390a1505050565b60008060009054906101000a900473ffffffffffffffffffffffffffffffffffffffff1673ffffffffffffffffffffffffffffffffffffffff163373ffffffffffffffffffffffffffffffffffffffff1614151561170857600080fd5b600660008473ffffffffffffffffffffffffffffffffffffffff1673ffffffffffffffffffffffffffffffffffffffff16815260200190815260200160002054905060008114156117b357600780549050600660008573ffffffffffffffffffffffffffffffffffffffff1673ffffffffffffffffffffffffffffffffffffffff16815260200190815260200160002081905550600780548091906001016117b09190611da0565b90505b6060604051908101604052808473ffffffffffffffffffffffffffffffffffffffff168152602001838152602001428152506007828154811015156117f457fe5b906000526020600020906003020160008201518160000160006101000a81548173ffffffffffffffffffffffffffffffffffffffff021916908373ffffffffffffffffffffffffffffffffffffffff1602179055506020820151816001019080519060200190611865929190611e84565b50604082015181600201559050507f27b022af4a8347100c7a041ce5ccf8e14d644ff05de696315196faae8cd50c9b836001604051808373ffffffffffffffffffffffffffffffffffffffff1673ffffffffffffffffffffffffffffffffffffffff168152602001821515151581526020019250505060405180910390a1505050565b6000806000600660003373ffffffffffffffffffffffffffffffffffffffff1673ffffffffffffffffffffffffffffffffffffffff168152602001908152602001600020541415151561193a57600080fd5b60048581548110151561194957fe5b90600052602060002090600a020190508060090160003373ffffffffffffffffffffffffffffffffffffffff1673ffffffffffffffffffffffffffffffffffffffff16815260200190815260200160002060009054906101000a900460ff161515156119b457600080fd5b60018160090160003373ffffffffffffffffffffffffffffffffffffffff1673ffffffffffffffffffffffffffffffffffffffff16815260200190815260200160002060006101000a81548160ff02191690831515021790555080600501600081548092919060010191905055508315611a41578060060160008154809291906001019190505550611a57565b8060060160008154809291906001900391905055505b7fc34f869b7ff431b034b7b9aea9822dac189a685e0b015c7d1be3add3f89128e88585338660405180858152602001841515151581526020018373ffffffffffffffffffffffffffffffffffffffff1673ffffffffffffffffffffffffffffffffffffffff16815260200180602001828103825283818151815260200191508051906020019080838360005b83811015611afe578082015181840152602081019050611ae3565b50505050905090810190601f168015611b2b5780820380516001836020036101000a031916815260200191505b509550505050505060405180910390a180600501549150509392505050565b600080600486815481101515611b5c57fe5b90600052602060002090600a02019050848484604051808473ffffffffffffffffffffffffffffffffffffffff1673ffffffffffffffffffffffffffffffffffffffff166c0100000000000000000000000002815260140183815260200182805190602001908083835b602083101515611beb5780518252602082019150602081019050602083039250611bc6565b6001836020036101000a038019825116818451168082178552505050505050905001935050505060405180910390206000191681600701546000191614915050949350505050565b6000809054906101000a900473ffffffffffffffffffffffffffffffffffffffff1673ffffffffffffffffffffffffffffffffffffffff163373ffffffffffffffffffffffffffffffffffffffff16141515611c8e57600080fd5b806000806101000a81548173ffffffffffffffffffffffffffffffffffffffff021916908373ffffffffffffffffffffffffffffffffffffffff16021790555050565b828054600181600116156101000203166002900490600052602060002090601f016020900481019282601f10611d0a5780548555611d47565b82800160010185558215611d4757600052602060002091601f016020900482015b82811115611d46578254825591600101919060010190611d2b565b5b509050611d549190611f04565b5090565b50805460018160011615610100020316600290046000825580601f10611d7e5750611d9d565b601f016020900490600052602060002090810190611d9c9190611f04565b5b50565b815481835581811511611dcd57600302816003028360005260206000209182019101611dcc9190611f29565b5b505050565b815481835581811511611dff57600a0281600a028360005260206000209182019101611dfe9190611f87565b5b505050565b828054600181600116156101000203166002900490600052602060002090601f016020900481019282601f10611e4557805160ff1916838001178555611e73565b82800160010185558215611e73579182015b82811115611e72578251825591602001919060010190611e57565b5b509050611e809190611f04565b5090565b828054600181600116156101000203166002900490600052602060002090601f016020900481019282601f10611ec557805160ff1916838001178555611ef3565b82800160010185558215611ef3579182015b82811115611ef2578251825591602001919060010190611ed7565b5b509050611f009190611f04565b5090565b611f2691905b80821115611f22576000816000905550600101611f0a565b5090565b90565b611f8491905b80821115611f8057600080820160006101000a81549073ffffffffffffffffffffffffffffffffffffffff0219169055600182016000611f6f9190611d58565b600282016000905550600301611f2f565b5090565b90565b61203a91905b8082111561203657600080820160006101000a81549073ffffffffffffffffffffffffffffffffffffffff02191690556001820160009055600282016000611fd59190611d58565b60038201600090556004820160006101000a81549060ff02191690556004820160016101000a81549060ff021916905560058201600090556006820160009055600782016000905560088201600061202d919061203d565b50600a01611f8d565b5090565b90565b508054600082556002029060005260206000209081019061205e9190612061565b50565b6120c891905b808211156120c457600080820160006101000a81549060ff02191690556000820160016101000a81549073ffffffffffffffffffffffffffffffffffffffff02191690556001820160006120bb9190611d58565b50600201612067565b5090565b905600a165627a7a7230582033610f4deaa21b0c62689693a8b34c069a31f1d3be681711b20c3094bfd3f77a0029",
  "source": "pragma solidity ^0.4.2;\r\n\r\nimport \"./Owned.sol\";\r\nimport \"./TokenRecipient.sol\";\r\n\r\ncontract Congress is Owned, TokenRecipient {\r\n\r\n    // Contract variables\r\n    uint public minimumQuorum; // Minimum number of members required to vote on a Proposal\r\n    uint public debatingPeriodInMinutes; // Debating period for a Proposal\r\n    int public majorityMargin;\r\n\r\n    Proposal[] public proposals; // Proposals being debated on...\r\n    uint public numProposals;\r\n\r\n    mapping (address => uint) public memberId;\r\n    Member[] public members;\r\n\r\n    // Contract Events\r\n    event ProposalAdded(uint proposalID, address recipient, uint amount, string description);\r\n    event Voted(uint proposalID, bool position, address voter, string justification);\r\n    event ProposalTallied(uint proposalID, int result, uint quorum, bool active);\r\n    event MembershipChanged(address member, bool isMember);\r\n    event ChangeOfRules(uint newMinimumQuorum, uint newDebatingPeriodInMinutes, int newMajorityMargin);\r\n\r\n    struct Proposal {\r\n        address recipient;\r\n        uint amount;\r\n        string description;\r\n        uint votingDeadline;\r\n        bool executed;\r\n        bool proposalPassed;\r\n        uint numberOfVotes;\r\n        int currentResult;\r\n        bytes32 proposalHash;\r\n        Vote[] votes;\r\n\r\n        /// Mappings can be seen as hash tables which are virtually initialized such that\r\n        /// every possible key exists and is mapped to a value whose byte-representation is all zeros : a type's default value.\r\n        /// The key data is not actually stored in a mapping, only its keccak256 hash used to look up the value.\r\n        mapping (address => bool) voted;\r\n    }\r\n\r\n    struct Member {\r\n        address member;\r\n        string name;\r\n        uint memberSince;\r\n    }\r\n\r\n    struct Vote {\r\n        bool inSupport;\r\n        address voter;\r\n        string justification;\r\n    }\r\n\r\n    // Modifier that allows only shareholders to vote and create new proposals\r\n    // Functions that include this modifier will only have an effect if they\r\n    //  satisfy the condition that the sender is a member\r\n    modifier onlyMembers {\r\n        require(memberId[msg.sender] != 0);\r\n        _;\r\n    }\r\n\r\n    /**\r\n     * Constructor function\r\n     * \r\n     * It is important to also provide the \"payable\" keyword here, otherwise\r\n     * the function will auto. reject all Ether sent to it.\r\n     */\r\n     function Congress(uint minimumQuorumForProposals, uint minutesForDebate, int marginOfVotesForMajority) payable public {\r\n         changeVotingRules(minimumQuorumForProposals, minutesForDebate, marginOfVotesForMajority);\r\n\r\n         addMember(0, \"\"); // Add an empty first member\r\n\r\n         addMember(owner, \"founder\"); // TODO: Why is this added?\r\n     }\r\n\r\n    /**\r\n     * Add a member.\r\n     *\r\n     * @param targetMember Eth address to be added\r\n     * @param memberName public name for that member (TODO: Could be Github repo name)\r\n     */\r\n    function addMember(address targetMember, string memberName) onlyOwner public {\r\n        uint id = memberId[targetMember]; // Check to see if member is already present\r\n        if (id == 0) { // If member isn't the founder\r\n            memberId[targetMember] = members.length;\r\n            id = members.length++;\r\n        }\r\n\r\n        members[id] = Member({member: targetMember, memberSince: now, name:memberName});\r\n        MembershipChanged(targetMember, true);\r\n    }\r\n\r\n     /**\r\n      * Remove a member.\r\n      *\r\n      * @notice Remove membership from 'targetMember'\r\n      *\r\n      * @param targetMember ethereum address to be removed\r\n      */\r\n    function removeMember(address targetMember) onlyOwner public {\r\n        require(memberId[targetMember] != 0); // Make sure founder isn't removed\r\n\r\n        // For all members after the member to remove, push them back one spot\r\n        for (uint i = memberId[targetMember]; i < members.length; i++) {\r\n            members[i] = members[i + 1]; // The first iteration replaces the member to remove\r\n        }\r\n\r\n        delete members[members.length - 1];\r\n        members.length--;\r\n    }\r\n\r\n    /**\r\n     * Change voting rules\r\n     *\r\n     * Make so that proposals need to be discussed for at least `minutesForDebate/60` hours,\r\n     * have at least `minimumQuorumForProposals` votes, and have 50% + `marginOfVotesForMajority` votes to be executed\r\n     *\r\n     * @param minimumQuorumForProposals Number of members required to vote on a proposal for it to be executed\r\n     * @param minutesForDebate Minimum amount of delay between when a proposal is made and when it can be executed\r\n     * @param marginOfVotesForMajority the proposal needs to have 50% plus this number\r\n     */\r\n     function changeVotingRules(uint minimumQuorumForProposals, uint minutesForDebate, int marginOfVotesForMajority) onlyOwner public {\r\n         minimumQuorum = minimumQuorumForProposals;\r\n         debatingPeriodInMinutes = minutesForDebate;\r\n         majorityMargin = marginOfVotesForMajority;\r\n\r\n         ChangeOfRules(minimumQuorum, debatingPeriodInMinutes, majorityMargin);\r\n     }\r\n\r\n    /**\r\n     * Add Proposal\r\n     * \r\n     * Propose to send `weiamount / 1e18` ether to `beneficiary` for `jobDescription`.\r\n     * `transactionBytecode` ? Contains : Does not contain code.\r\n     * \r\n     * NOTE: The smallest denomination aka base unit of ether is called Wei.\r\n     *\r\n     * @param beneficiary who to send the ether to\r\n     * @param weiAmount amount of ether to send, in wei\r\n     * @param jobDescription Description of job\r\n     * @param transactionBytecode bytecode of transaction\r\n     */\r\n    function newProposal(\r\n        address beneficiary,\r\n        uint weiAmount,\r\n        string jobDescription,\r\n        bytes transactionBytecode\r\n    )\r\n        onlyMembers public\r\n        returns (uint proposalID)\r\n    {\r\n        proposalID = proposals.length++;\r\n\r\n        Proposal storage p = proposals[proposalID];\r\n        p.recipient = beneficiary;\r\n        p.amount = weiAmount;\r\n        p.description = jobDescription;\r\n\r\n        /// Computes the Ethereum-SHA-3 hash of the (tightly packed) arguments\r\n        /// Tightly packed -> arguments are concatenated without padded (e.g. \"ab\", \"c\" -> \"abc\" | 0x616263)\r\n        p.proposalHash = keccak256(beneficiary, weiAmount, transactionBytecode);\r\n\r\n        p.votingDeadline = now + debatingPeriodInMinutes * 1 minutes;\r\n        p.executed = false;\r\n        p.proposalPassed = false;\r\n        p.numberOfVotes = 0;\r\n\r\n        ProposalAdded(proposalID, beneficiary, weiAmount, jobDescription);\r\n        numProposals = proposalID + 1;\r\n\r\n        return proposalID;\r\n    }\r\n\r\n    /**\r\n     *\r\n     * Add proposal in Ether\r\n     *\r\n     * Propose to send 'etherAmount' ether to 'beneficiary' for 'jobDescription'. \r\n     * `transactionBytecode ? Contains : Does not contain` code.\r\n     * Utility function to use if the amount to be given is in round numbers.\r\n     *\r\n     * @param beneficiary who to send ether to\r\n     * @param etherAmount amount of ether to send\r\n     * @param jobDescription Description of job\r\n     * @param transactionBytecode bytecode of transaction\r\n     */\r\n    function newProposalInEther(\r\n        address beneficiary,\r\n        uint etherAmount,\r\n        string jobDescription,\r\n        bytes transactionBytecode\r\n    )\r\n        onlyMembers public\r\n        returns (uint proposalID)\r\n    {\r\n        return newProposal(beneficiary, etherAmount * 1 ether, jobDescription, transactionBytecode);\r\n    }\r\n\r\n    /**\r\n    * Check if proposal code matches\r\n    *\r\n    * @param proposalNumber ID number of the proposal to query\r\n    * @param beneficiary who to send the ether to\r\n    * @param weiAmount amount of ether to send\r\n    * @param transactionBytecode bytecode of transaction\r\n    */\r\n    function checkProposalCode(\r\n        uint proposalNumber,\r\n        address beneficiary,\r\n        uint weiAmount,\r\n        bytes transactionBytecode\r\n    )\r\n        constant public\r\n            returns (bool codeChecksOut)\r\n    {\r\n        Proposal storage p = proposals[proposalNumber];\r\n        return p.proposalHash == keccak256(beneficiary, weiAmount, transactionBytecode);\r\n    }\r\n\r\n    /**\r\n    * Log a vote for a proposal\r\n    *\r\n    * Vote `supportsProposal` ? In support : against # `proposalNumber`\r\n    *\r\n    * @param proposalNumber number of proposal\r\n    * @param supportsProposal either in favor or against it\r\n    * @param justificationText optional justification text\r\n    */\r\n    function vote(\r\n        uint proposalNumber,\r\n        bool supportsProposal,\r\n        string justificationText\r\n    )\r\n        onlyMembers public\r\n        returns (uint voteID)\r\n    {\r\n        Proposal storage p = proposals[proposalNumber]; // Get the correct proposal\r\n        require(!p.voted[msg.sender]); // Make sure the person hasn't voted yet\r\n\r\n        p.voted[msg.sender] = true;\r\n        p.numberOfVotes++;\r\n        if (supportsProposal) {\r\n            p.currentResult++;\r\n        } else {\r\n            p.currentResult--;\r\n        }\r\n\r\n        // Create a log of this event\r\n        Voted(proposalNumber, supportsProposal, msg.sender, justificationText);\r\n\r\n        return p.numberOfVotes;\r\n    }\r\n\r\n    /**\r\n    * Finish vote\r\n    *\r\n    * Count the votes proposal# `proposalNumber` and execute it if approved\r\n    *\r\n    * @param proposalNumber proposal number\r\n    * @param transactionBytecode optional: if the transaction contained a bytecode, send it!\r\n    */\r\n    function executeProposal(uint proposalNumber, bytes transactionBytecode) public {\r\n        Proposal storage p = proposals[proposalNumber];\r\n\r\n        require(now > p.votingDeadline\r\n            && !p.executed\r\n            && p.proposalHash == keccak256(p.recipient, p.amount, transactionBytecode)\r\n            && p.numberOfVotes >= minimumQuorum);\r\n\r\n        // Execute proposal\r\n        if (p.currentResult > majorityMargin) {\r\n            p.executed = true;\r\n            require(p.recipient.call.value(p.amount)(transactionBytecode));\r\n\r\n            p.proposalPassed = true;\r\n        } else {\r\n            // Failure of proposal\r\n            p.proposalPassed = false;\r\n        }\r\n\r\n        // Fire events\r\n        ProposalTallied(proposalNumber, p.currentResult, p.numberOfVotes, p.proposalPassed);\r\n    }\r\n}\r\n",
  "sourcePath": "C:\\Users\\oakejp12\\Documents\\Development\\Crypto\\ETH\\ethpull\\contracts\\Congress.sol",
  "compiler": {
    "name": "solc",
    "version": "0.4.18+commit.9cf6e910.Emscripten.clang"
  },
  "schemaVersion": "1.0.1",
  "updatedAt": "2017-12-04T01:03:00.678Z"
}