{
  "contractName": "TokenRecipient",
  "abi": [
    {
      "constant": false,
      "inputs": [
        {
          "name": "_from",
          "type": "address"
        },
        {
          "name": "_value",
          "type": "uint256"
        },
        {
          "name": "_token",
          "type": "address"
        },
        {
          "name": "_extraData",
          "type": "bytes"
        }
      ],
      "name": "receiveApproval",
      "outputs": [],
      "payable": false,
      "stateMutability": "nonpayable",
      "type": "function"
    },
    {
      "payable": true,
      "stateMutability": "payable",
      "type": "fallback"
    },
    {
      "anonymous": false,
      "inputs": [
        {
          "indexed": false,
          "name": "sender",
          "type": "address"
        },
        {
          "indexed": false,
          "name": "amount",
          "type": "uint256"
        }
      ],
      "name": "ReceivedEther",
      "type": "event"
    },
    {
      "anonymous": false,
      "inputs": [
        {
          "indexed": false,
          "name": "_from",
          "type": "address"
        },
        {
          "indexed": false,
          "name": "_value",
          "type": "uint256"
        },
        {
          "indexed": false,
          "name": "_token",
          "type": "address"
        },
        {
          "indexed": false,
          "name": "_extraData",
          "type": "bytes"
        }
      ],
      "name": "ReceivedTokens",
      "type": "event"
    }
  ],
  "bytecode": "0x6060604052341561000f57600080fd5b61039b8061001e6000396000f300606060405260043610610041576000357c0100000000000000000000000000000000000000000000000000000000900463ffffffff1680638f4ffcb1146100ae575b7fa419615bc8fda4c87663805ee2a3597a6d71c1d476911d9892f340d965bc7bf13334604051808373ffffffffffffffffffffffffffffffffffffffff1673ffffffffffffffffffffffffffffffffffffffff1681526020018281526020019250505060405180910390a1005b34156100b957600080fd5b610150600480803573ffffffffffffffffffffffffffffffffffffffff1690602001909190803590602001909190803573ffffffffffffffffffffffffffffffffffffffff1690602001909190803590602001908201803590602001908080601f01602080910402602001604051908101604052809392919081815260200183838082843782019150505050505091905050610152565b005b60008290508073ffffffffffffffffffffffffffffffffffffffff166323b872dd8630876000604051602001526040518463ffffffff167c0100000000000000000000000000000000000000000000000000000000028152600401808473ffffffffffffffffffffffffffffffffffffffff1673ffffffffffffffffffffffffffffffffffffffff1681526020018373ffffffffffffffffffffffffffffffffffffffff1673ffffffffffffffffffffffffffffffffffffffff1681526020018281526020019350505050602060405180830381600087803b151561023657600080fd5b6102c65a03f1151561024757600080fd5b50505060405180519050151561025c57600080fd5b7fd65b48fd35864b3528d38e44760be5553248f89bf3ff6b06cca57817cc2650bf85858585604051808573ffffffffffffffffffffffffffffffffffffffff1673ffffffffffffffffffffffffffffffffffffffff1681526020018481526020018373ffffffffffffffffffffffffffffffffffffffff1673ffffffffffffffffffffffffffffffffffffffff16815260200180602001828103825283818151815260200191508051906020019080838360005b8381101561032b578082015181840152602081019050610310565b50505050905090810190601f1680156103585780820380516001836020036101000a031916815260200191505b509550505050505060405180910390a150505050505600a165627a7a7230582073419ad826e3da2209b5f51a0b8e8632eaf0c46f0fb02e35f8f64f80ffe50dbc0029",
  "source": "pragma solidity ^0.4.2;\r\n\r\ncontract TokenRecipient {\r\n    event ReceivedEther(address sender, uint amount);\r\n    event ReceivedTokens(address _from, uint256 _value, address _token, bytes _extraData);\r\n\r\n    function receiveApproval(address _from, uint256 _value, address _token, bytes _extraData) public {\r\n        Token t = Token(_token);\r\n        require(t.transferFrom(_from, this, _value));\r\n        ReceivedTokens(_from, _value, _token, _extraData);\r\n    }    \r\n\r\n    function () payable public {\r\n        ReceivedEther(msg.sender, msg.value);\r\n    }\r\n}\r\n\r\ninterface Token {\r\n    function transferFrom(address _from, address _to, uint256 _value) public returns (bool success);\r\n}\r\n",
  "sourcePath": "c:\\Users\\oakejp12\\Documents\\Development\\Crypto\\ETH\\ethpull\\contracts\\TokenRecipient.sol",
  "compiler": {
    "name": "solc",
    "version": "0.4.18+commit.9cf6e910.Emscripten.clang"
  },
  "schemaVersion": "1.0.1",
  "updatedAt": "2018-01-17T04:16:46.660Z"
}